:10000000C02000202D01000029010000290100006E
:1000100000000000000000000000000000000000E0
:1000200000000000000000000000000029010000A6
:10003000000000000000000029010000290100006C
:100040002901000029010000290100002901000008
:1000500029010000290100002901000029010000F8
:1000600029010000290100002901000029010000E8
:1000700029010000290100002901000029010000D8
:1000800029010000290100002901000029010000C8
:1000900029010000290100002901000029010000B8
:1000A00029010000290100002901000029010000A8
:1000B0000000000010B5064C2378002B07D1054B3B
:1000C000002B02D0044800E000BF0123237010BDC4
:1000D0006400002000000000FC180000084B10B570
:1000E000002B03D00749084800E000BF0748036819
:1000F000002B00D110BD064B002BFBD09847F9E731
:100100000000000068000020FC180000FC1800003F
:100110000000000010B5024B9847024B984710BDF5
:10012000B1020000B50E0000FEE70000F8B52A4A53
:100130002A4B9A4211D01A00294B9A420DD2294AD1
:1001400003339B1A9B0801339B000022234822495A
:100150008C58845004329A42FAD1234A234B9A4253
:100160000AD2D34321495B1803218B4304339B18E4
:10017000002102C29342FCD11D4AFF211D4B8B433B
:100180009360FD3990235B001B4AD1501B4AD37802
:100190000325AB4302242343D370D3780C27BB43FE
:1001A00008263343D370164B987B3022904320228D
:1001B00010439873997BB943314399739A7BAA434F
:1001C00022439A730F4A536880210B4353600E4BAE
:1001D00098470E4B9847FEE7FC18000000000020EF
:1001E000640000200400002064000020BC00002007
:1001F00000ED00E0000000000070004100500041F0
:100200000048004100400041ED0F0000410900009E
:1002100030B50E4B5622995C0125A9430124214398
:10022000C9B299543B20195C473A91430D3A1143A6
:10023000195457215A5CAA432243D2B25A541A5C29
:1002400048390A4011310A431A5430BD0044004174
:10025000044A136A20210B431362034A034B5A805A
:100260007047C0460004004017400000000C0040EA
:1002700010B5054B9847002204490548054B98479F
:10028000054B984710BDC0465102000000140042C3
:10029000980000202D0600001102000010B5024851
:1002A000024B984710BDC04610E000E08D040000EE
:1002B000F8B5DE4657464E464546E0B5614B984791
:1002C000C022D2058023DB00536193605E4B5F49FF
:1002D0009962C02424069C624A25595D012081430D
:1002E00059558021090151619160594999629C6277
:1002F0000135595D8143595580252D025560554979
:1003000099625549996255604F215E5C0427B84651
:100310003E435E5495615D5C85435D548021490395
:10032000516191608021C9058B4699624B49996260
:100330005425595D8143595580218903516191604C
:1003400059469962464999620135595D814359552B
:100350009426905188218A4650502031414F5F5059
:100360005C50C027B946DF5D8743BC464F466546B3
:10037000DD55022595515746D5513B4D5D505C509A
:10038000C125A9465D5D2F0087434D465F55454613
:1003900095515746D551354D5D505C50C225A84604
:1003A0005D5D2F00874345465F55BA3D95515746E1
:1003B000D5512F4D5D505C50C325A8465D5D2F0083
:1003C000874345465F55B33D95515746D551294D15
:1003D0005D505C50C425A8465D5D2F0087434546AF
:1003E0005F55843D95515746D551234D5D505C5026
:1003F000C625A8465D5D2F00874345465F55463DAF
:1004000095515746D5511D4D5D505C50C724A446AB
:100410001C5D844365465C555C4694515D46D551F0
:100420005D50174A5A5036315A5C82435A54154B24
:100430009847154B98473CBC90469946A246AB4618
:10044000F8BDC04609070000004400410004004018
:100450000008004000800240000002C0100000C000
:10046000200000C0010000400200004004000040E5
:1004700008000040100000404000004080000040A4
:10048000004000C0710200009D02000010B5024B48
:100490001860024B984710BD80000020D90800006A
:1004A00010B5044B1C68044B984701002000034B17
:1004B000984710BD80000020E5060000ED08000010
:1004C00010B5044B1C68044B984701002000034BF7
:1004D000984710BD8000002001070000ED080000D3
:1004E00070B506000C00150000280DD00800431E52
:1004F0009841C0B234220549054B984733682A0019
:1005000021003000984770BD0020F3E7101800006C
:10051000A506000070B506000C00150000280DD0DF
:100520000800431E9841C0B23D220549054B98473B
:1005300073682A0021003000984770BD0020F3E75F
:1005400010180000A5060000F8B5CE46474680B555
:1005500004000F009046002826D0002926D0100065
:10056000431E9841F1221249124B98470834124D0C
:100570002000A8470028FBD00026104B99460E4DBE
:10058000B95D2000C8472000A8470028FBD00136ED
:100590004645F5D30A4D2000A8470028FBD030007F
:1005A0000CBC90469946F8BD0020DBE70020D9E757
:1005B00024180000A506000065080000550800008A
:1005C0006F080000F8B5CE46474680B504000F001E
:1005D000904600281DD000291DD01000431E9841D0
:1005E000862252000D490E4B9847002608340D4DC7
:1005F0000D4B99462000A8470028FBD02000C84793
:10060000B85501364645F5D330000CBC90469946A6
:10061000F8BD0020E4E70020E2E7C046241800000F
:10062000A5060000790800005D08000070B505000F
:100630000C00002813D00800431E9841C0B2342299
:100640000849094B9847280008302100074B984774
:10065000002803D1064B6B60064B2B6070BD002059
:10066000EDE7C04624180000A506000015080000AC
:10067000C50500004905000010B50400431E98415F
:10068000C0B253220449054B984720000830044B60
:100690009847002010BDC04624180000A5060000A1
:1006A00041080000002800D100BE70470300064A40
:1006B0001268002A04D0044A1068C31813607047F7
:1006C0000249014A1160F6E784000020C0200020A2
:1006D00001204042704780239B014B6000207047FF
:1006E0000020704710B50300C8208000584301382F
:1006F0006421024B9847013010BDC046D50E000062
:10070000FA235B015843704710B5064B5A685A608C
:10071000054B9847054B9847054B9847FF20054BDD
:10072000984710BD004000415907000085080000AF
:10073000C908000039070000C3070AD5054B80220D
:1007400052009A60832252025A601A005378DB09E1
:10075000FCD17047000C0040064B1A7AD2B21A72D4
:100760005A7AD2B25A729A7AD2B29A72DA7AD2B2E9
:10077000DA7270470004004010B504001F4BC31824
:100780009B0ADBB2032B04D01D4A1E4900201E4BDE
:100790009847E369DB0718D40322E3691A42FCD1C6
:1007A00023689B070BD52368022293432360013201
:1007B000E3691A42FCD10222E3691A42FCD1052303
:1007C00023600322E3691A42FCD10122E3691A4241
:1007D000FCD10E4B23600322E3691A42FCD1C023F3
:1007E0009B0263600722E3691A42FCD1084BA38194
:1007F0000023A3733022A354002010BD00F8FFBDD6
:100800003A02000040180000A50600000400104055
:1008100004C5FFFF70B505000C00431E9841C0B22F
:10082000B4220449044B98472C602000034B98479E
:1008300070BDC04640180000A50600007907000002
:100840000268136802210B4313600131D369194216
:10085000FCD17047036889B2198570470368188D09
:10086000C0B270470368187E0123184070470368C0
:10087000187E8007C00F70470368187E4007C00FBE
:10088000704700000E4B196A1A6A0E480140920F19
:100890009207022002430A431A629A6902439A614C
:1008A0001A7F1F210A401A7719000822CB681A42C2
:1008B000FCD0034A136A80210B4313627047C04681
:1008C000000800400000FF0F024A936902218B4399
:1008D0009361704700080040024B034A5A600522AA
:1008E0001A60704710E000E0FFFFFF0070B50B0ECC
:1008F0005E1EF6B2002B13D034000E4A0E4D80203F
:1009000040025560956013680342FCD0013CE4B29C
:10091000FF2CF6D13306F61A084B9C466144711839
:10092000044B596099601900802252020B681342EF
:10093000FCD070BD10E000E0FFFFFF00010000FFF1
:10094000F0B5D64600B58EB0394B9847394C0023E8
:10095000089307930693059327330493013B03936E
:10096000053B0293013B019304330093023B232296
:1009700000212000304DA8470222102120002F4BDB
:10098000984720002E4B984764202E4B9847002212
:10099000002120002C4B98470BAA2C4B13CB13C2E1
:1009A0000024244F2A4E274D0BABE15C3800B047A2
:1009B0000A20A84701340C2CF6D11E4C012201213B
:1009C0002000214B984723492000234B9847234B75
:1009D0009A461C4E06E01748214B9847FA204000E3
:1009E000184B98471348D047FA20B0471148D047D2
:1009F000FA24A4002000B0470E481A4DA847FA2058
:100A0000B0470C48A8472000B0470324144D0D4FB1
:100A10000848A847FA208000B8470648124B984774
:100A2000FA204000B847013CE4B2002CF0D1D2E7F4
:100A300015010000A40000200D0D0000250C000091
:100A4000010C0000C10400009D0D00005C180000B6
:100A5000750B00006C180000850B0000E10D000014
:100A6000B90B0000D10D0000D10B000043091F227B
:100A700010401E3A8240002906D1DB01C021C90581
:100A80008C4663445A617047DB01C021C9058C461E
:100A900063449A61F7E7000070B506008078002192
:100AA000074DA8470520074CA047B0780121A8476B
:100AB0000220A047B0780021A8476420A04770BD5D
:100AC0006D0A0000A1040000F0B5C64600B505009F
:100AD000884600240127084E4146214139402B1900
:100AE000D878B0470134042CF6D12800034B98473E
:100AF00004BC9046F0BDC0466D0A0000990A000093
:100B0000F0B5C64600B505000E0000781100124C85
:100B1000A04768780021A047AB7BDB0609D43109E8
:100B200028000E4CA04731002800A04704BC904686
:100B3000F0BD002401239846074F31002141434670
:100B400019402B19D878B8470134082CF5D1280062
:100B5000034B9847EAE7C0466D0A0000C90A000047
:100B6000990A000010B50022014B984710BDC046FD
:100B7000010B000010B50122014B984710BDC04683
:100B8000010B0000F8B506000F000800084B98475D
:100B9000C0B200280BD03C000138C5B201357D1928
:100BA000044F21783000B8470134AC42F9D1F8BD88
:100BB000B1110000750B000010B5C17B04230B437D
:100BC000C3730C231943014B984710BD650B0000FC
:100BD00010B5C17B04239943C17304331943014BFE
:100BE000984710BD650B000010B50221024B9847D5
:100BF0000A20024B984710BD650B0000C10400009D
:100C000010B504000121044B98470A20034B984774
:100C10002000034B984710BD650B0000C104000085
:100C2000E90B000070B50400017342732F4B0020E4
:100C300018704030587099704031D970012A03D92A
:100C4000A37B08221343A3733220294EB047207898
:100C50000021284DA847A0780021A84760780021EE
:100C6000A8473220B047A17BCB0629D520252943B0
:100C7000C9B22000204EB04705201D4B9847A17BEC
:100C80002943C9B22000B04796201C4B9847A17B4E
:100C90002943C9B22000B047A17B2023194320007B
:100CA000154DA8470623E3732000154B98472000F5
:100CB000144B98470223237406212000A84770BDD7
:100CC00003212000104DA8470520094EB0470321FD
:100CD0002000A8470520B04703212000A847C820CE
:100CE000064B984702212000A847D5E7880000203E
:100CF000C10400006D0A0000650B0000A1040000A3
:100D0000B90B0000010C0000C90A0000F0B5DE4676
:100D100057464E464546E0B583B092469B460CABDF
:100D20001B7899460DAB1B7898460EAB1B789C46FA
:100D30000FAB1A7810AB1B78019311AC277812AC6B
:100D4000267813AC257814AC2478534603705B46A0
:100D500043704B468370C1724346C3706346037150
:100D600042716B461B798371C7710672457284723A
:100D7000002904D0102904D11023837301E000233B
:100D8000837301221021044B984703B03CBC90466A
:100D90009946A246AB46F0BD250C000010B5131CC9
:100DA000032A00D90323DBB2427B9A4201D8013ADD
:100DB000D3B2054AD35CCB18802149421943C9B24A
:100DC000024B984710BDC04688000020650B00000C
:100DD00010B51821014B984710BDC046650B0000A7
:100DE00010B51C21014B984710BDC046650B000093
:100DF00010B50B00002809D111001800054B9847C9
:100E0000002800DB10BD01204042FBE701204042EA
:100E1000F8E7C0466D0E000010B50B00013802283F
:100E200009D811001800054B9847002800DB10BDB9
:100E300001204042FBE701204042F8E7910E00000C
:100E400070B50600064D2B6898680021054CA04738
:100E50002B6858680021A047034B1E6070BDC04638
:100E600000000020451000008C00002010B5040098
:100E7000054B1868002804D08AB22100034B98471C
:100E800010BD0020FCE7C0468C00002015050000C6
:100E900010B50400054B1868002804D08AB2210060
:100EA000034B984710BD0020FCE7C0468C00002093
:100EB000E104000010B5044C2000044B98472000CA
:100EC000034B984710BDC0469800002079060000EB
:100ED000410E0000002243088B4274D303098B4269
:100EE0005FD3030A8B4244D3030B8B4228D3030CFA
:100EF0008B420DD3FF22090212BA030C8B4202D39C
:100F00001212090265D0030B8B4219D300E0090AC3
:100F1000C30B8B4201D3CB03C01A5241830B8B42CC
:100F200001D38B03C01A5241430B8B4201D34B03B5
:100F3000C01A5241030B8B4201D30B03C01A52411A
:100F4000C30A8B4201D3CB02C01A5241830A8B429F
:100F500001D38B02C01A5241430A8B4201D34B0288
:100F6000C01A5241030A8B4201D30B02C01A5241EC
:100F7000CDD2C3098B4201D3CB01C01A52418309A0
:100F80008B4201D38B01C01A524143098B4201D3DA
:100F90004B01C01A524103098B4201D30B01C01A05
:100FA0005241C3088B4201D3CB00C01A524183087F
:100FB0008B4201D38B00C01A524143088B4201D3AC
:100FC0004B00C01A5241411A00D20146524110460C
:100FD0007047FFE701B5002000F006F802BDC046EB
:100FE0000029F7D076E770477047C04670B50026F5
:100FF0000C4D0D4C641BA410A64209D1002600F034
:101000006DFC0A4D0A4C641BA410A64205D170BDAC
:10101000B300EB5898470136EEE7B300EB5898471A
:101020000136F2E7E8180000E8180000E8180000B0
:10103000EC18000003008218934200D17047197029
:101040000133F9E74A424A41802310B55200DB00E0
:1010500000F002F810BD0000F0B51D004F4B85B048
:101060001E6804000F000092002E05D0B369002B0B
:1010700002D1300000F09CF9494B9C4250D1746879
:10108000009B022B05D0012B00D984E0002D00DA53
:1010900081E02100300000F01DF9616B002908D0CB
:1010A00023004433994202D0300000F049FA002373
:1010B00063630023A3616360A3891B0603D52169D1
:1010C000300000F03DFAA389364A1340A381009B0B
:1010D000022B5AD003AB02AA2100300000F0FEF927
:1010E000A3891843A081002D24D1029D280000F07F
:1010F0001DFA0195071E42D1029B0193AB4239D1E3
:10110000012040420223A2891343A3810023A3604C
:1011100023004733236023610123636105B0F0BDE1
:10112000214B9C4201D1B468AAE7204B9C42A7D135
:10113000F468A5E7002FD9D0B369002B02D13000A5
:1011400000F036F9009B012B03D1A389009A1A43C2
:10115000A2810820A389276027616561184018D003
:10116000012018400023984211D06D42A360A56170
:101170001800D3E7019800F0D9F9071EC0D08023EA
:10118000A289019D1343A381D6E70020BAE7A56099
:10119000C4E7A060C2E701204042BFE70000002092
:1011A0009C1800005CF3FFFFBC1800007C180000D6
:1011B0000023C25C0133002AFBD1581E7047000097
:1011C000F7B58A8905000C00130760D44B68002B23
:1011D00004DC0B6C002B01DC0020FEBDE76A002F55
:1011E000FAD000232E682B6080235B011A4034D094
:1011F000606DA3895B0706D56368C01A636B002B1B
:1012000001D0236CC01A0200216A00232800E76A7B
:10121000B847A189431C06D12B681D2B31D82C4A15
:10122000DA40D3072DD50023636023692360CB0404
:1012300005D5431C02D12B68002B00D16065616B82
:101240002E600029C8D023004433994202D02800E0
:1012500000F076F900206063BFE70123216A2800CF
:10126000B847431CC5D12B68002BC2D01D2B01D021
:10127000162B01D12E60AFE74023A2891343A3812F
:10128000ABE740230B430120A3814042A5E70F6950
:10129000002FA1D00B680F60DB1B01930023920786
:1012A00000D14B69A360019B002B00DC94E7019BFC
:1012B0003A00216A2800A66AB047002803DC4023D0
:1012C000A2891343DFE7019B3F181B1A0193EAE74A
:1012D000010040200B6970B505000C00002B01D106
:1012E000002070BD002804D08369002B01D100F0DC
:1012F0005FF80B4B9C4209D16C680C22A35E002B5B
:10130000EED021002800FFF75BFFEAE7054B9C4287
:1013100001D1AC68F1E7044B9C42EED1EC68ECE7FC
:101320009C180000BC1800007C18000010B5024991
:1013300000F0B2F810BDC046D5120000002310B571
:10134000040003604360836081814366C28103615E
:1013500043618361190008225C30FFF76BFE054B87
:1013600024626362044BA362044BE362044B236375
:1013700010BDC046B5160000DD16000015170000B0
:101380004117000070B568254A1E55430E0029001C
:10139000743100F01FF9041E08D000212A000160FA
:1013A00046600C30A0606832FFF744FE200070BD3C
:1013B000836913B50400002B28D18364C3640365DB
:1013C000134B144A1B6882620193984201D1012396
:1013D0008361200000F020F86060200000F01CF81D
:1013E000A060200000F018F80022E060042160688E
:1013F000FFF7A4FF01220921A068FFF79FFF022247
:101400001221E068FFF79AFF0123A36113BDC046D4
:10141000781800002D130000F8B51E4B07001E6859
:10142000B369002B02D13000FFF7C2FF4836B46821
:101430007368013B04D53368002B07D03668F6E7A4
:101440000C22A55E002D0DD06834F2E7042138008F
:10145000FFF798FF30600028F0D10C2304003B60B8
:101460002000F8BD012320005B42E3810233A38109
:1014700065662560A560656025616561A5610822D6
:1014800029005C30FFF7D6FD6563A563A564E564BC
:10149000E6E7C04678180000F7B50400070000260C
:1014A00001914834002C01D13000FEBD6368A5686D
:1014B0000093009B013B009301D52468F2E7AB89C0
:1014C000012B08D90E22AB5E013304D0290038006D
:1014D000019B984706436835EBE7000070B50E00A6
:1014E0001D000E23C95E90B01400002907DA002306
:1014F0002B60B3891B0611D48023DB000FE001AA07
:1015000000F04AF90028F2DBF022029B120213409D
:10151000054A9B185A4253412B60EDE740230020B7
:10152000236010B070BDC04600E0FFFF10B5034B54
:101530000100186800F04EF810BDC0460000002001
:1015400070B50500002910D00C1F2368002B00DAAD
:10155000E418280000F046F91D4A1368002B05D155
:1015600063601460280000F03EF970BDA34209D901
:10157000216860188342F3D118685B6841182160C4
:10158000EEE713005A68002A01D0A242F9D919687F
:101590005818A0420BD120680918581819608242C7
:1015A000E0D110685268411819605A60DAE7A04229
:1015B00002D90C232B60D5E721686018824203D141
:1015C000106852684118216062605C60CAE7C046DA
:1015D00090000020032370B5CD1C9D430835060004
:1015E0000C2D1ED20C25A9421DD8300000F0FAF8AF
:1015F000254A14682100002919D1244C2368002BA6
:1016000003D1300000F044F820602900300000F0E1
:101610003FF8431C2CD10C233000336000F0E3F87A
:1016200003E0002DDFDA0C233360002070BD0B686F
:101630005B1B1AD40B2B03D90B60CC18256003E07D
:101640008C420ED163681360300000F0CCF82000AB
:1016500007220B30231D9043C31AE7D05A42E250B1
:10166000E4E74B6863600C00EEE70C004968C2E7F2
:101670000323C41C9C43A042E0D0211A300000F098
:1016800007F8431CDAD1C6E7900000209400002040
:10169000002370B5064C050008002360FFF706F82C
:1016A000431C03D12368002B00D02B6070BDC046C3
:1016B000B800002070B50C000E25495F00F094F8CA
:1016C000002803DB636D1B18636570BDA389024AA4
:1016D0001340A381F9E7C046FFEFFFFFF8B51F00F5
:1016E0008B8905000C001600DB0505D50E23C95EAD
:1016F0000022022300F062F8A389054A2800134063
:10170000A38132000E23E15E3B0000F01FF8F8BD1C
:10171000FFEFFFFF70B50C000E25495F00F04EF89B
:10172000A389421C03D1054A1340A38170BD8022C6
:1017300052011343A3816065F8E7C046FFEFFFFF46
:1017400010B50E23C95E00F015F810BD70B5050088
:10175000080011000022064C22601A00FFF75CFB13
:10176000431C03D12368002B00D02B6070BDC04602
:10177000B8000020002370B5064C05000800236067
:10178000FEF7A6FF431C03D12368002B00D02B607B
:1017900070BDC046B8000020002370B5064C05009F
:1017A000080011002360FEF796FF431C03D1236855
:1017B000002B00D02B6070BDB800002070B5050074
:1017C000080011000022064C22601A00FEF788FF74
:1017D000431C03D12368002B00D02B6070BDC04692
:1017E000B80000207047704770B505000800110070
:1017F0000022064C22601A00FFF7FAFA431C03D1BC
:101800002368002B00D02B6070BDC046B8000020BC
:101810002E2E2F68616C2F7372632F68616C5F6965
:101820006F2E63002E2E2F68616C2F7372632F68EA
:10183000616C5F75736172745F73796E632E6300A0
:101840002E2E2F68706C2F736572636F6D2F68700A
:101850006C5F736572636F6D2E63000053616D641E
:10186000323120582070726F000000004D2E5261FE
:101870007761736864656800040000200000000060
:101880000000000000000000000000000000000058
:101890000000000000000000000000000000000048
:1018A0000000000000000000000000000000000038
:1018B0000000000000000000000000000000000028
:1018C0000000000000000000000000000000000018
:1018D000000000000000000000000000F8B5C04655
:1018E000F8BC08BC9E467047DD000000F8B5C04655
:0C18F000F8BC08BC9E467047B500000024
:1018FC0004000020000000009C180000BC18000030
:10190C007C18000000000000000000000000000037
:10191C0000000000000000000000000000000000BB
:10192C0000000000000000000000000000000000AB
:10193C00000000000000000000000000000000009B
:10194C00000000000000000000000000000000008B
:04195C000000000087
:00000001FF
